{
  "_format": "hh-sol-artifact-1",
  "contractName": "MintExample",
  "sourceName": "contracts/MintExample.sol",
  "abi": [
    {
      "inputs": [
        {
          "internalType": "string",
          "name": "name",
          "type": "string"
        },
        {
          "internalType": "string",
          "name": "symbol",
          "type": "string"
        }
      ],
      "stateMutability": "nonpayable",
      "type": "constructor"
    },
    {
      "anonymous": false,
      "inputs": [
        {
          "indexed": true,
          "internalType": "address",
          "name": "owner",
          "type": "address"
        },
        {
          "indexed": true,
          "internalType": "address",
          "name": "approved",
          "type": "address"
        },
        {
          "indexed": true,
          "internalType": "uint256",
          "name": "tokenId",
          "type": "uint256"
        }
      ],
      "name": "Approval",
      "type": "event"
    },
    {
      "anonymous": false,
      "inputs": [
        {
          "indexed": true,
          "internalType": "address",
          "name": "owner",
          "type": "address"
        },
        {
          "indexed": true,
          "internalType": "address",
          "name": "operator",
          "type": "address"
        },
        {
          "indexed": false,
          "internalType": "bool",
          "name": "approved",
          "type": "bool"
        }
      ],
      "name": "ApprovalForAll",
      "type": "event"
    },
    {
      "anonymous": false,
      "inputs": [
        {
          "indexed": true,
          "internalType": "address",
          "name": "previousOwner",
          "type": "address"
        },
        {
          "indexed": true,
          "internalType": "address",
          "name": "newOwner",
          "type": "address"
        }
      ],
      "name": "OwnershipTransferred",
      "type": "event"
    },
    {
      "anonymous": false,
      "inputs": [
        {
          "indexed": true,
          "internalType": "address",
          "name": "from",
          "type": "address"
        },
        {
          "indexed": true,
          "internalType": "address",
          "name": "to",
          "type": "address"
        },
        {
          "indexed": true,
          "internalType": "uint256",
          "name": "tokenId",
          "type": "uint256"
        }
      ],
      "name": "Transfer",
      "type": "event"
    },
    {
      "inputs": [
        {
          "internalType": "address",
          "name": "to",
          "type": "address"
        },
        {
          "internalType": "uint256",
          "name": "tokenId",
          "type": "uint256"
        }
      ],
      "name": "approve",
      "outputs": [],
      "stateMutability": "nonpayable",
      "type": "function"
    },
    {
      "inputs": [
        {
          "internalType": "address",
          "name": "owner",
          "type": "address"
        }
      ],
      "name": "balanceOf",
      "outputs": [
        {
          "internalType": "uint256",
          "name": "",
          "type": "uint256"
        }
      ],
      "stateMutability": "view",
      "type": "function"
    },
    {
      "inputs": [
        {
          "internalType": "address",
          "name": "",
          "type": "address"
        }
      ],
      "name": "balances",
      "outputs": [
        {
          "internalType": "uint256",
          "name": "",
          "type": "uint256"
        }
      ],
      "stateMutability": "view",
      "type": "function"
    },
    {
      "inputs": [
        {
          "internalType": "uint256",
          "name": "tokenId",
          "type": "uint256"
        }
      ],
      "name": "getApproved",
      "outputs": [
        {
          "internalType": "address",
          "name": "",
          "type": "address"
        }
      ],
      "stateMutability": "view",
      "type": "function"
    },
    {
      "inputs": [
        {
          "internalType": "address",
          "name": "owner",
          "type": "address"
        },
        {
          "internalType": "address",
          "name": "operator",
          "type": "address"
        }
      ],
      "name": "isApprovedForAll",
      "outputs": [
        {
          "internalType": "bool",
          "name": "",
          "type": "bool"
        }
      ],
      "stateMutability": "view",
      "type": "function"
    },
    {
      "inputs": [
        {
          "internalType": "uint256",
          "name": "numberOfMints",
          "type": "uint256"
        }
      ],
      "name": "mint",
      "outputs": [],
      "stateMutability": "payable",
      "type": "function"
    },
    {
      "inputs": [],
      "name": "name",
      "outputs": [
        {
          "internalType": "string",
          "name": "",
          "type": "string"
        }
      ],
      "stateMutability": "view",
      "type": "function"
    },
    {
      "inputs": [],
      "name": "owner",
      "outputs": [
        {
          "internalType": "address",
          "name": "",
          "type": "address"
        }
      ],
      "stateMutability": "view",
      "type": "function"
    },
    {
      "inputs": [
        {
          "internalType": "uint256",
          "name": "tokenId",
          "type": "uint256"
        }
      ],
      "name": "ownerOf",
      "outputs": [
        {
          "internalType": "address",
          "name": "",
          "type": "address"
        }
      ],
      "stateMutability": "view",
      "type": "function"
    },
    {
      "inputs": [],
      "name": "renounceOwnership",
      "outputs": [],
      "stateMutability": "nonpayable",
      "type": "function"
    },
    {
      "inputs": [
        {
          "internalType": "address",
          "name": "from",
          "type": "address"
        },
        {
          "internalType": "address",
          "name": "to",
          "type": "address"
        },
        {
          "internalType": "uint256",
          "name": "tokenId",
          "type": "uint256"
        }
      ],
      "name": "safeTransferFrom",
      "outputs": [],
      "stateMutability": "nonpayable",
      "type": "function"
    },
    {
      "inputs": [
        {
          "internalType": "address",
          "name": "from",
          "type": "address"
        },
        {
          "internalType": "address",
          "name": "to",
          "type": "address"
        },
        {
          "internalType": "uint256",
          "name": "tokenId",
          "type": "uint256"
        },
        {
          "internalType": "bytes",
          "name": "data",
          "type": "bytes"
        }
      ],
      "name": "safeTransferFrom",
      "outputs": [],
      "stateMutability": "nonpayable",
      "type": "function"
    },
    {
      "inputs": [
        {
          "internalType": "address",
          "name": "operator",
          "type": "address"
        },
        {
          "internalType": "bool",
          "name": "approved",
          "type": "bool"
        }
      ],
      "name": "setApprovalForAll",
      "outputs": [],
      "stateMutability": "nonpayable",
      "type": "function"
    },
    {
      "inputs": [
        {
          "internalType": "bytes4",
          "name": "interfaceId",
          "type": "bytes4"
        }
      ],
      "name": "supportsInterface",
      "outputs": [
        {
          "internalType": "bool",
          "name": "",
          "type": "bool"
        }
      ],
      "stateMutability": "view",
      "type": "function"
    },
    {
      "inputs": [],
      "name": "symbol",
      "outputs": [
        {
          "internalType": "string",
          "name": "",
          "type": "string"
        }
      ],
      "stateMutability": "view",
      "type": "function"
    },
    {
      "inputs": [
        {
          "internalType": "uint256",
          "name": "index",
          "type": "uint256"
        }
      ],
      "name": "tokenByIndex",
      "outputs": [
        {
          "internalType": "uint256",
          "name": "",
          "type": "uint256"
        }
      ],
      "stateMutability": "view",
      "type": "function"
    },
    {
      "inputs": [
        {
          "internalType": "address",
          "name": "owner",
          "type": "address"
        },
        {
          "internalType": "uint256",
          "name": "index",
          "type": "uint256"
        }
      ],
      "name": "tokenOfOwnerByIndex",
      "outputs": [
        {
          "internalType": "uint256",
          "name": "",
          "type": "uint256"
        }
      ],
      "stateMutability": "view",
      "type": "function"
    },
    {
      "inputs": [
        {
          "internalType": "uint256",
          "name": "tokenId",
          "type": "uint256"
        }
      ],
      "name": "tokenURI",
      "outputs": [
        {
          "internalType": "string",
          "name": "",
          "type": "string"
        }
      ],
      "stateMutability": "view",
      "type": "function"
    },
    {
      "inputs": [],
      "name": "totalSupply",
      "outputs": [
        {
          "internalType": "uint256",
          "name": "",
          "type": "uint256"
        }
      ],
      "stateMutability": "view",
      "type": "function"
    },
    {
      "inputs": [
        {
          "internalType": "address",
          "name": "from",
          "type": "address"
        },
        {
          "internalType": "address",
          "name": "to",
          "type": "address"
        },
        {
          "internalType": "uint256",
          "name": "tokenId",
          "type": "uint256"
        }
      ],
      "name": "transferFrom",
      "outputs": [],
      "stateMutability": "nonpayable",
      "type": "function"
    },
    {
      "inputs": [
        {
          "internalType": "address",
          "name": "newOwner",
          "type": "address"
        }
      ],
      "name": "transferOwnership",
      "outputs": [],
      "stateMutability": "nonpayable",
      "type": "function"
    }
  ],
  "bytecode": "0x60806040523480156200001157600080fd5b5060405162001fbc38038062001fbc833981016040819052620000349162000251565b8151829082906200004d906000906020850190620000de565b50805162000063906001906020840190620000de565b505050620000806200007a6200008860201b60201c565b6200008c565b5050620002f8565b3390565b600a80546001600160a01b038381166001600160a01b0319831681179093556040519116919082907f8be0079c531659141344cd1fd0a4f28419497f9722a3daafe3b4186f6b6457e090600090a35050565b828054620000ec90620002bb565b90600052602060002090601f0160209004810192826200011057600085556200015b565b82601f106200012b57805160ff19168380011785556200015b565b828001600101855582156200015b579182015b828111156200015b5782518255916020019190600101906200013e565b50620001699291506200016d565b5090565b5b808211156200016957600081556001016200016e565b634e487b7160e01b600052604160045260246000fd5b600082601f830112620001ac57600080fd5b81516001600160401b0380821115620001c957620001c962000184565b604051601f8301601f19908116603f01168101908282118183101715620001f457620001f462000184565b816040528381526020925086838588010111156200021157600080fd5b600091505b8382101562000235578582018301518183018401529082019062000216565b83821115620002475760008385830101525b9695505050505050565b600080604083850312156200026557600080fd5b82516001600160401b03808211156200027d57600080fd5b6200028b868387016200019a565b93506020850151915080821115620002a257600080fd5b50620002b1858286016200019a565b9150509250929050565b600181811c90821680620002d057607f821691505b60208210811415620002f257634e487b7160e01b600052602260045260246000fd5b50919050565b611cb480620003086000396000f3fe60806040526004361061016a5760003560e01c80636352211e116100cb578063a0712d681161007f578063c87b56dd11610059578063c87b56dd146103c7578063e985e9c5146103e7578063f2fde38b1461043057600080fd5b8063a0712d6814610374578063a22cb46514610387578063b88d4fde146103a757600080fd5b8063715018a6116100b0578063715018a61461032c5780638da5cb5b1461034157806395d89b411461035f57600080fd5b80636352211e146102ec57806370a082311461030c57600080fd5b806323b872dd116101225780632f745c59116101075780632f745c591461028c57806342842e0e146102ac5780634f6ccce7146102cc57600080fd5b806323b872dd1461023f57806327e235e31461025f57600080fd5b8063081812fc11610153578063081812fc146101c6578063095ea7b3146101fe57806318160ddd1461022057600080fd5b806301ffc9a71461016f57806306fdde03146101a4575b600080fd5b34801561017b57600080fd5b5061018f61018a366004611852565b610450565b60405190151581526020015b60405180910390f35b3480156101b057600080fd5b506101b9610494565b60405161019b91906118c7565b3480156101d257600080fd5b506101e66101e13660046118da565b610526565b6040516001600160a01b03909116815260200161019b565b34801561020a57600080fd5b5061021e61021936600461190f565b61054d565b005b34801561022c57600080fd5b506008545b60405190815260200161019b565b34801561024b57600080fd5b5061021e61025a366004611939565b610684565b34801561026b57600080fd5b5061023161027a366004611975565b600b6020526000908152604090205481565b34801561029857600080fd5b506102316102a736600461190f565b61070b565b3480156102b857600080fd5b5061021e6102c7366004611939565b6107b3565b3480156102d857600080fd5b506102316102e73660046118da565b6107ce565b3480156102f857600080fd5b506101e66103073660046118da565b610872565b34801561031857600080fd5b50610231610327366004611975565b6108d7565b34801561033857600080fd5b5061021e610971565b34801561034d57600080fd5b50600a546001600160a01b03166101e6565b34801561036b57600080fd5b506101b9610985565b61021e6103823660046118da565b610994565b34801561039357600080fd5b5061021e6103a2366004611990565b6109f2565b3480156103b357600080fd5b5061021e6103c23660046119e2565b610a01565b3480156103d357600080fd5b506101b96103e23660046118da565b610a8f565b3480156103f357600080fd5b5061018f610402366004611abe565b6001600160a01b03918216600090815260056020908152604080832093909416825291909152205460ff1690565b34801561043c57600080fd5b5061021e61044b366004611975565b610b03565b60006001600160e01b031982167f780e9d6300000000000000000000000000000000000000000000000000000000148061048e575061048e82610b93565b92915050565b6060600080546104a390611af1565b80601f01602080910402602001604051908101604052809291908181526020018280546104cf90611af1565b801561051c5780601f106104f15761010080835404028352916020019161051c565b820191906000526020600020905b8154815290600101906020018083116104ff57829003601f168201915b5050505050905090565b600061053182610c2e565b506000908152600460205260409020546001600160a01b031690565b600061055882610872565b9050806001600160a01b0316836001600160a01b031614156105e75760405162461bcd60e51b815260206004820152602160248201527f4552433732313a20617070726f76616c20746f2063757272656e74206f776e6560448201527f720000000000000000000000000000000000000000000000000000000000000060648201526084015b60405180910390fd5b336001600160a01b038216148061060357506106038133610402565b6106755760405162461bcd60e51b815260206004820152603e60248201527f4552433732313a20617070726f76652063616c6c6572206973206e6f7420746f60448201527f6b656e206f776e6572206e6f7220617070726f76656420666f7220616c6c000060648201526084016105de565b61067f8383610c92565b505050565b61068e3382610d0d565b6107005760405162461bcd60e51b815260206004820152602e60248201527f4552433732313a2063616c6c6572206973206e6f7420746f6b656e206f776e6560448201527f72206e6f7220617070726f76656400000000000000000000000000000000000060648201526084016105de565b61067f838383610d8c565b6000610716836108d7565b821061078a5760405162461bcd60e51b815260206004820152602b60248201527f455243373231456e756d657261626c653a206f776e657220696e646578206f7560448201527f74206f6620626f756e647300000000000000000000000000000000000000000060648201526084016105de565b506001600160a01b03919091166000908152600660209081526040808320938352929052205490565b61067f83838360405180602001604052806000815250610a01565b60006107d960085490565b821061084d5760405162461bcd60e51b815260206004820152602c60248201527f455243373231456e756d657261626c653a20676c6f62616c20696e646578206f60448201527f7574206f6620626f756e6473000000000000000000000000000000000000000060648201526084016105de565b6008828154811061086057610860611b2c565b90600052602060002001549050919050565b6000818152600260205260408120546001600160a01b03168061048e5760405162461bcd60e51b815260206004820152601860248201527f4552433732313a20696e76616c696420746f6b656e204944000000000000000060448201526064016105de565b60006001600160a01b0382166109555760405162461bcd60e51b815260206004820152602960248201527f4552433732313a2061646472657373207a65726f206973206e6f74206120766160448201527f6c6964206f776e6572000000000000000000000000000000000000000000000060648201526084016105de565b506001600160a01b031660009081526003602052604090205490565b610979610f71565b6109836000610fcb565b565b6060600180546104a390611af1565b600061099f60085490565b905060005b8281101561067f576109bf336109ba8385611b58565b61102a565b336000908152600b602052604081208054916109da83611b70565b919050555080806109ea90611b70565b9150506109a4565b6109fd338383611044565b5050565b610a0b3383610d0d565b610a7d5760405162461bcd60e51b815260206004820152602e60248201527f4552433732313a2063616c6c6572206973206e6f7420746f6b656e206f776e6560448201527f72206e6f7220617070726f76656400000000000000000000000000000000000060648201526084016105de565b610a8984848484611113565b50505050565b6060610a9a82610c2e565b6000610ab160408051602081019091526000815290565b90506000815111610ad15760405180602001604052806000815250610afc565b80610adb84611191565b604051602001610aec929190611b8b565b6040516020818303038152906040525b9392505050565b610b0b610f71565b6001600160a01b038116610b875760405162461bcd60e51b815260206004820152602660248201527f4f776e61626c653a206e6577206f776e657220697320746865207a65726f206160448201527f646472657373000000000000000000000000000000000000000000000000000060648201526084016105de565b610b9081610fcb565b50565b60006001600160e01b031982167f80ac58cd000000000000000000000000000000000000000000000000000000001480610bf657506001600160e01b031982167f5b5e139f00000000000000000000000000000000000000000000000000000000145b8061048e57507f01ffc9a7000000000000000000000000000000000000000000000000000000006001600160e01b031983161461048e565b6000818152600260205260409020546001600160a01b0316610b905760405162461bcd60e51b815260206004820152601860248201527f4552433732313a20696e76616c696420746f6b656e204944000000000000000060448201526064016105de565b6000818152600460205260409020805473ffffffffffffffffffffffffffffffffffffffff19166001600160a01b0384169081179091558190610cd482610872565b6001600160a01b03167f8c5be1e5ebec7d5bd14f71427d1e84f3dd0314c0f7b2291e5b200ac8c7c3b92560405160405180910390a45050565b600080610d1983610872565b9050806001600160a01b0316846001600160a01b03161480610d6057506001600160a01b0380821660009081526005602090815260408083209388168352929052205460ff165b80610d845750836001600160a01b0316610d7984610526565b6001600160a01b0316145b949350505050565b826001600160a01b0316610d9f82610872565b6001600160a01b031614610e1b5760405162461bcd60e51b815260206004820152602560248201527f4552433732313a207472616e736665722066726f6d20696e636f72726563742060448201527f6f776e657200000000000000000000000000000000000000000000000000000060648201526084016105de565b6001600160a01b038216610e965760405162461bcd60e51b8152602060048201526024808201527f4552433732313a207472616e7366657220746f20746865207a65726f2061646460448201527f726573730000000000000000000000000000000000000000000000000000000060648201526084016105de565b610ea18383836112c3565b610eac600082610c92565b6001600160a01b0383166000908152600360205260408120805460019290610ed5908490611bba565b90915550506001600160a01b0382166000908152600360205260408120805460019290610f03908490611b58565b9091555050600081815260026020526040808220805473ffffffffffffffffffffffffffffffffffffffff19166001600160a01b0386811691821790925591518493918716917fddf252ad1be2c89b69c2b068fc378daa952ba7f163c4a11628f55a4df523b3ef91a4505050565b600a546001600160a01b031633146109835760405162461bcd60e51b815260206004820181905260248201527f4f776e61626c653a2063616c6c6572206973206e6f7420746865206f776e657260448201526064016105de565b600a80546001600160a01b0383811673ffffffffffffffffffffffffffffffffffffffff19831681179093556040519116919082907f8be0079c531659141344cd1fd0a4f28419497f9722a3daafe3b4186f6b6457e090600090a35050565b6109fd82826040518060200160405280600081525061137b565b816001600160a01b0316836001600160a01b031614156110a65760405162461bcd60e51b815260206004820152601960248201527f4552433732313a20617070726f766520746f2063616c6c65720000000000000060448201526064016105de565b6001600160a01b03838116600081815260056020908152604080832094871680845294825291829020805460ff191686151590811790915591519182527f17307eab39ab6107e8899845ad3d59bd9653f200f220920489ca2b5937696c31910160405180910390a3505050565b61111e848484610d8c565b61112a848484846113f9565b610a895760405162461bcd60e51b815260206004820152603260248201527f4552433732313a207472616e7366657220746f206e6f6e20455243373231526560448201527131b2b4bb32b91034b6b83632b6b2b73a32b960711b60648201526084016105de565b6060816111d157505060408051808201909152600181527f3000000000000000000000000000000000000000000000000000000000000000602082015290565b8160005b81156111fb57806111e581611b70565b91506111f49050600a83611be7565b91506111d5565b60008167ffffffffffffffff811115611216576112166119cc565b6040519080825280601f01601f191660200182016040528015611240576020820181803683370190505b5090505b8415610d8457611255600183611bba565b9150611262600a86611bfb565b61126d906030611b58565b60f81b81838151811061128257611282611b2c565b60200101907effffffffffffffffffffffffffffffffffffffffffffffffffffffffffffff1916908160001a9053506112bc600a86611be7565b9450611244565b6001600160a01b03831661131e5761131981600880546000838152600960205260408120829055600182018355919091527ff3f7a9fe364faab93b216da50a3214154f22a0a2b415b23a84c8169e8b636ee30155565b611341565b816001600160a01b0316836001600160a01b031614611341576113418382611551565b6001600160a01b0382166113585761067f816115ee565b826001600160a01b0316826001600160a01b03161461067f5761067f828261169d565b61138583836116e1565b61139260008484846113f9565b61067f5760405162461bcd60e51b815260206004820152603260248201527f4552433732313a207472616e7366657220746f206e6f6e20455243373231526560448201527131b2b4bb32b91034b6b83632b6b2b73a32b960711b60648201526084016105de565b60006001600160a01b0384163b1561154657604051630a85bd0160e11b81526001600160a01b0385169063150b7a029061143d903390899088908890600401611c0f565b602060405180830381600087803b15801561145757600080fd5b505af1925050508015611487575060408051601f3d908101601f1916820190925261148491810190611c4b565b60015b61152c573d8080156114b5576040519150601f19603f3d011682016040523d82523d6000602084013e6114ba565b606091505b5080516115245760405162461bcd60e51b815260206004820152603260248201527f4552433732313a207472616e7366657220746f206e6f6e20455243373231526560448201527131b2b4bb32b91034b6b83632b6b2b73a32b960711b60648201526084016105de565b805181602001fd5b6001600160e01b031916630a85bd0160e11b149050610d84565b506001949350505050565b6000600161155e846108d7565b6115689190611bba565b6000838152600760205260409020549091508082146115bb576001600160a01b03841660009081526006602090815260408083208584528252808320548484528184208190558352600790915290208190555b5060009182526007602090815260408084208490556001600160a01b039094168352600681528383209183525290812055565b60085460009061160090600190611bba565b6000838152600960205260408120546008805493945090928490811061162857611628611b2c565b90600052602060002001549050806008838154811061164957611649611b2c565b600091825260208083209091019290925582815260099091526040808220849055858252812055600880548061168157611681611c68565b6001900381819060005260206000200160009055905550505050565b60006116a8836108d7565b6001600160a01b039093166000908152600660209081526040808320868452825280832085905593825260079052919091209190915550565b6001600160a01b0382166117375760405162461bcd60e51b815260206004820181905260248201527f4552433732313a206d696e7420746f20746865207a65726f206164647265737360448201526064016105de565b6000818152600260205260409020546001600160a01b03161561179c5760405162461bcd60e51b815260206004820152601c60248201527f4552433732313a20746f6b656e20616c7265616479206d696e7465640000000060448201526064016105de565b6117a8600083836112c3565b6001600160a01b03821660009081526003602052604081208054600192906117d1908490611b58565b9091555050600081815260026020526040808220805473ffffffffffffffffffffffffffffffffffffffff19166001600160a01b03861690811790915590518392907fddf252ad1be2c89b69c2b068fc378daa952ba7f163c4a11628f55a4df523b3ef908290a45050565b6001600160e01b031981168114610b9057600080fd5b60006020828403121561186457600080fd5b8135610afc8161183c565b60005b8381101561188a578181015183820152602001611872565b83811115610a895750506000910152565b600081518084526118b381602086016020860161186f565b601f01601f19169290920160200192915050565b602081526000610afc602083018461189b565b6000602082840312156118ec57600080fd5b5035919050565b80356001600160a01b038116811461190a57600080fd5b919050565b6000806040838503121561192257600080fd5b61192b836118f3565b946020939093013593505050565b60008060006060848603121561194e57600080fd5b611957846118f3565b9250611965602085016118f3565b9150604084013590509250925092565b60006020828403121561198757600080fd5b610afc826118f3565b600080604083850312156119a357600080fd5b6119ac836118f3565b9150602083013580151581146119c157600080fd5b809150509250929050565b634e487b7160e01b600052604160045260246000fd5b600080600080608085870312156119f857600080fd5b611a01856118f3565b9350611a0f602086016118f3565b925060408501359150606085013567ffffffffffffffff80821115611a3357600080fd5b818701915087601f830112611a4757600080fd5b813581811115611a5957611a596119cc565b604051601f8201601f19908116603f01168101908382118183101715611a8157611a816119cc565b816040528281528a6020848701011115611a9a57600080fd5b82602086016020830137600060208483010152809550505050505092959194509250565b60008060408385031215611ad157600080fd5b611ada836118f3565b9150611ae8602084016118f3565b90509250929050565b600181811c90821680611b0557607f821691505b60208210811415611b2657634e487b7160e01b600052602260045260246000fd5b50919050565b634e487b7160e01b600052603260045260246000fd5b634e487b7160e01b600052601160045260246000fd5b60008219821115611b6b57611b6b611b42565b500190565b6000600019821415611b8457611b84611b42565b5060010190565b60008351611b9d81846020880161186f565b835190830190611bb181836020880161186f565b01949350505050565b600082821015611bcc57611bcc611b42565b500390565b634e487b7160e01b600052601260045260246000fd5b600082611bf657611bf6611bd1565b500490565b600082611c0a57611c0a611bd1565b500690565b60006001600160a01b03808716835280861660208401525083604083015260806060830152611c41608083018461189b565b9695505050505050565b600060208284031215611c5d57600080fd5b8151610afc8161183c565b634e487b7160e01b600052603160045260246000fdfea264697066735822122081ba7007081b1bfa8cdf4e505931e671d76e3cdb647bf57be9b8049fa2012a0464736f6c63430008090033",
  "linkReferences": {},
  "deployedLinkReferences": {}
}